{"abi":[{"type":"constructor","inputs":[],"stateMutability":"nonpayable"},{"type":"function","name":"MINTER_ROLE","inputs":[],"outputs":[{"name":"","type":"bytes32","internalType":"bytes32"}],"stateMutability":"view"},{"type":"function","name":"approve","inputs":[{"name":"to","type":"address","internalType":"address"},{"name":"tokenId","type":"uint256","internalType":"uint256"}],"outputs":[],"stateMutability":"nonpayable"},{"type":"function","name":"balanceOf","inputs":[{"name":"owner","type":"address","internalType":"address"}],"outputs":[{"name":"","type":"uint256","internalType":"uint256"}],"stateMutability":"view"},{"type":"function","name":"getApproved","inputs":[{"name":"tokenId","type":"uint256","internalType":"uint256"}],"outputs":[{"name":"","type":"address","internalType":"address"}],"stateMutability":"view"},{"type":"function","name":"isApprovedForAll","inputs":[{"name":"owner","type":"address","internalType":"address"},{"name":"operator","type":"address","internalType":"address"}],"outputs":[{"name":"","type":"bool","internalType":"bool"}],"stateMutability":"view"},{"type":"function","name":"mint","inputs":[{"name":"_to","type":"address","internalType":"address"},{"name":"_tokenId","type":"uint256","internalType":"uint256"},{"name":"_uri","type":"string","internalType":"string"}],"outputs":[],"stateMutability":"nonpayable"},{"type":"function","name":"name","inputs":[],"outputs":[{"name":"","type":"string","internalType":"string"}],"stateMutability":"view"},{"type":"function","name":"obtainGoodies","inputs":[],"outputs":[{"name":"","type":"string","internalType":"string"}],"stateMutability":"pure"},{"type":"function","name":"obtainOffer","inputs":[],"outputs":[{"name":"","type":"string","internalType":"string"}],"stateMutability":"nonpayable"},{"type":"function","name":"owner","inputs":[],"outputs":[{"name":"","type":"address","internalType":"address"}],"stateMutability":"view"},{"type":"function","name":"ownerOf","inputs":[{"name":"tokenId","type":"uint256","internalType":"uint256"}],"outputs":[{"name":"","type":"address","internalType":"address"}],"stateMutability":"view"},{"type":"function","name":"renounceOwnership","inputs":[],"outputs":[],"stateMutability":"nonpayable"},{"type":"function","name":"requestReward","inputs":[{"name":"rewardType","type":"string","internalType":"string"}],"outputs":[],"stateMutability":"nonpayable"},{"type":"function","name":"safeTransferFrom","inputs":[{"name":"from","type":"address","internalType":"address"},{"name":"to","type":"address","internalType":"address"},{"name":"tokenId","type":"uint256","internalType":"uint256"}],"outputs":[],"stateMutability":"nonpayable"},{"type":"function","name":"safeTransferFrom","inputs":[{"name":"from","type":"address","internalType":"address"},{"name":"to","type":"address","internalType":"address"},{"name":"tokenId","type":"uint256","internalType":"uint256"},{"name":"data","type":"bytes","internalType":"bytes"}],"outputs":[],"stateMutability":"nonpayable"},{"type":"function","name":"setApprovalForAll","inputs":[{"name":"operator","type":"address","internalType":"address"},{"name":"approved","type":"bool","internalType":"bool"}],"outputs":[],"stateMutability":"nonpayable"},{"type":"function","name":"supportsInterface","inputs":[{"name":"interfaceId","type":"bytes4","internalType":"bytes4"}],"outputs":[{"name":"","type":"bool","internalType":"bool"}],"stateMutability":"view"},{"type":"function","name":"symbol","inputs":[],"outputs":[{"name":"","type":"string","internalType":"string"}],"stateMutability":"view"},{"type":"function","name":"tokenURI","inputs":[{"name":"tokenId","type":"uint256","internalType":"uint256"}],"outputs":[{"name":"","type":"string","internalType":"string"}],"stateMutability":"view"},{"type":"function","name":"transferFrom","inputs":[{"name":"from","type":"address","internalType":"address"},{"name":"to","type":"address","internalType":"address"},{"name":"tokenId","type":"uint256","internalType":"uint256"}],"outputs":[],"stateMutability":"nonpayable"},{"type":"function","name":"transferOwnership","inputs":[{"name":"newOwner","type":"address","internalType":"address"}],"outputs":[],"stateMutability":"nonpayable"},{"type":"event","name":"Approval","inputs":[{"name":"owner","type":"address","indexed":true,"internalType":"address"},{"name":"approved","type":"address","indexed":true,"internalType":"address"},{"name":"tokenId","type":"uint256","indexed":true,"internalType":"uint256"}],"anonymous":false},{"type":"event","name":"ApprovalForAll","inputs":[{"name":"owner","type":"address","indexed":true,"internalType":"address"},{"name":"operator","type":"address","indexed":true,"internalType":"address"},{"name":"approved","type":"bool","indexed":false,"internalType":"bool"}],"anonymous":false},{"type":"event","name":"BatchMetadataUpdate","inputs":[{"name":"_fromTokenId","type":"uint256","indexed":false,"internalType":"uint256"},{"name":"_toTokenId","type":"uint256","indexed":false,"internalType":"uint256"}],"anonymous":false},{"type":"event","name":"MetadataUpdate","inputs":[{"name":"_tokenId","type":"uint256","indexed":false,"internalType":"uint256"}],"anonymous":false},{"type":"event","name":"OwnershipTransferred","inputs":[{"name":"previousOwner","type":"address","indexed":true,"internalType":"address"},{"name":"newOwner","type":"address","indexed":true,"internalType":"address"}],"anonymous":false},{"type":"event","name":"Transfer","inputs":[{"name":"from","type":"address","indexed":true,"internalType":"address"},{"name":"to","type":"address","indexed":true,"internalType":"address"},{"name":"tokenId","type":"uint256","indexed":true,"internalType":"uint256"}],"anonymous":false},{"type":"error","name":"ERC721IncorrectOwner","inputs":[{"name":"sender","type":"address","internalType":"address"},{"name":"tokenId","type":"uint256","internalType":"uint256"},{"name":"owner","type":"address","internalType":"address"}]},{"type":"error","name":"ERC721InsufficientApproval","inputs":[{"name":"operator","type":"address","internalType":"address"},{"name":"tokenId","type":"uint256","internalType":"uint256"}]},{"type":"error","name":"ERC721InvalidApprover","inputs":[{"name":"approver","type":"address","internalType":"address"}]},{"type":"error","name":"ERC721InvalidOperator","inputs":[{"name":"operator","type":"address","internalType":"address"}]},{"type":"error","name":"ERC721InvalidOwner","inputs":[{"name":"owner","type":"address","internalType":"address"}]},{"type":"error","name":"ERC721InvalidReceiver","inputs":[{"name":"receiver","type":"address","internalType":"address"}]},{"type":"error","name":"ERC721InvalidSender","inputs":[{"name":"sender","type":"address","internalType":"address"}]},{"type":"error","name":"ERC721NonexistentToken","inputs":[{"name":"tokenId","type":"uint256","internalType":"uint256"}]},{"type":"error","name":"OwnableInvalidOwner","inputs":[{"name":"owner","type":"address","internalType":"address"}]},{"type":"error","name":"OwnableUnauthorizedAccount","inputs":[{"name":"account","type":"address","internalType":"address"}]}],"bytecode":{"object":"0x60806040523480156200001157600080fd5b5033604051806040016040528060118152602001704e46542052657761726420426f6f6e747960781b8152506040518060400160405280600381526020016227292160e91b81525081600090816200006a9190620001b6565b506001620000798282620001b6565b5050506001600160a01b038116620000ab57604051631e4fbdf760e01b81526000600482015260240160405180910390fd5b620000b681620000bd565b5062000282565b600780546001600160a01b038381166001600160a01b0319831681179093556040519116919082907f8be0079c531659141344cd1fd0a4f28419497f9722a3daafe3b4186f6b6457e090600090a35050565b634e487b7160e01b600052604160045260246000fd5b600181811c908216806200013a57607f821691505b6020821081036200015b57634e487b7160e01b600052602260045260246000fd5b50919050565b601f821115620001b1576000816000526020600020601f850160051c810160208610156200018c5750805b601f850160051c820191505b81811015620001ad5782815560010162000198565b5050505b505050565b81516001600160401b03811115620001d257620001d26200010f565b620001ea81620001e3845462000125565b8462000161565b602080601f831160018114620002225760008415620002095750858301515b600019600386901b1c1916600185901b178555620001ad565b600085815260208120601f198616915b82811015620002535788860151825594840194600190910190840162000232565b5085821015620002725787850151600019600388901b60f8161c191681555b5050505050600190811b01905550565b61176080620002926000396000f3fe608060405234801561001057600080fd5b50600436106101375760003560e01c806395d89b41116100b8578063c87b56dd1161007c578063c87b56dd1461026a578063d3fc98641461027d578063d539139314610290578063e985e9c5146102b7578063f2fde38b146102ca578063ffc78413146102dd57600080fd5b806395d89b411461022c5780639849731514610234578063a22cb4651461023c578063b88d4fde1461024f578063bc72dda11461026257600080fd5b806342842e0e116100ff57806342842e0e146101cc5780636352211e146101df57806370a08231146101f2578063715018a6146102135780638da5cb5b1461021b57600080fd5b806301ffc9a71461013c57806306fdde0314610164578063081812fc14610179578063095ea7b3146101a457806323b872dd146101b9575b600080fd5b61014f61014a3660046110e8565b6102f0565b60405190151581526020015b60405180910390f35b61016c61031b565b60405161015b9190611155565b61018c610187366004611168565b6103ad565b6040516001600160a01b03909116815260200161015b565b6101b76101b236600461119d565b6103d6565b005b6101b76101c73660046111c7565b6103e5565b6101b76101da3660046111c7565b610475565b61018c6101ed366004611168565b610495565b610205610200366004611203565b6104a0565b60405190815260200161015b565b6101b76104e8565b6007546001600160a01b031661018c565b61016c6104fc565b61016c61050b565b6101b761024a36600461121e565b61052b565b6101b761025d3660046112e6565b610536565b61016c61054d565b61016c610278366004611168565b6105b0565b6101b761028b366004611362565b6106c1565b6102057f9f2df0fed2c77648de5860a4cc508cd0818c85b8b8a1ab4ceeef8d981c8956a681565b61014f6102c53660046113e9565b610713565b6101b76102d8366004611203565b610741565b6101b76102eb36600461141c565b61077f565b60006001600160e01b03198216632483248360e11b148061031557506103158261089a565b92915050565b60606000805461032a90611465565b80601f016020809104026020016040519081016040528092919081815260200182805461035690611465565b80156103a35780601f10610378576101008083540402835291602001916103a3565b820191906000526020600020905b81548152906001019060200180831161038657829003601f168201915b5050505050905090565b60006103b8826108ea565b506000828152600460205260409020546001600160a01b0316610315565b6103e1828233610923565b5050565b6001600160a01b03821661041457604051633250574960e11b8152600060048201526024015b60405180910390fd5b6000610421838333610930565b9050836001600160a01b0316816001600160a01b03161461046f576040516364283d7b60e01b81526001600160a01b038086166004830152602482018490528216604482015260640161040b565b50505050565b61049083838360405180602001604052806000815250610536565b505050565b6000610315826108ea565b60006001600160a01b0382166104cc576040516322718ad960e21b81526000600482015260240161040b565b506001600160a01b031660009081526003602052604090205490565b6104f0610a29565b6104fa6000610a56565b565b60606001805461032a90611465565b606060405180608001604052806050815260200161167760509139905090565b6103e1338383610aa8565b6105418484846103e5565b61046f84848484610b47565b600880546001810182556000919091527ff3f7a9fe364faab93b216da50a3214154f22a0a2b415b23a84c8169e8b636ee30180546001600160a01b031916331790556040805160a081019091526064808252606091906116c76020830139905090565b60606105bb826108ea565b50600082815260066020526040812080546105d590611465565b80601f016020809104026020016040519081016040528092919081815260200182805461060190611465565b801561064e5780601f106106235761010080835404028352916020019161064e565b820191906000526020600020905b81548152906001019060200180831161063157829003601f168201915b50505050509050600061066c60408051602081019091526000815290565b9050805160000361067e575092915050565b8151156106b057808260405160200161069892919061149f565b60405160208183030381529060405292505050919050565b6106b984610c70565b949350505050565b6106c9610a29565b6106d38484610ce5565b61046f8383838080601f016020809104026020016040519081016040528093929190818152602001838380828437600092019190915250610d4a92505050565b6001600160a01b03918216600090815260056020908152604080832093909416825291909152205460ff1690565b610749610a29565b6001600160a01b03811661077357604051631e4fbdf760e01b81526000600482015260240161040b565b61077c81610a56565b50565b6040516213919560ea1b602082015260230160405160208183030381529060405280519060200120816040516020016107b891906114ce565b6040516020818303038152906040528051906020012003610834576040516bffffffffffffffffffffffff193360601b166020820152426034820152600060548201819052906103e8906074016040516020818303038152906040528051906020012060001c61082891906114ea565b90506103e13382610ce5565b6040516427b33332b960d91b6020820152602501604051602081830303815290604052805190602001208160405160200161086f91906114ce565b6040516020818303038152906040528051906020012003610892576103e161054d565b6103e161050b565b60006001600160e01b031982166380ac58cd60e01b14806108cb57506001600160e01b03198216635b5e139f60e01b145b8061031557506301ffc9a760e01b6001600160e01b0319831614610315565b6000818152600260205260408120546001600160a01b03168061031557604051637e27328960e01b81526004810184905260240161040b565b6104908383836001610d9a565b6000828152600260205260408120546001600160a01b039081169083161561095d5761095d818486610ea0565b6001600160a01b0381161561099b5761097a600085600080610d9a565b6001600160a01b038116600090815260036020526040902080546000190190555b6001600160a01b038516156109ca576001600160a01b0385166000908152600360205260409020805460010190555b60008481526002602052604080822080546001600160a01b0319166001600160a01b0389811691821790925591518793918516917fddf252ad1be2c89b69c2b068fc378daa952ba7f163c4a11628f55a4df523b3ef91a4949350505050565b6007546001600160a01b031633146104fa5760405163118cdaa760e01b815233600482015260240161040b565b600780546001600160a01b038381166001600160a01b0319831681179093556040519116919082907f8be0079c531659141344cd1fd0a4f28419497f9722a3daafe3b4186f6b6457e090600090a35050565b6001600160a01b038216610ada57604051630b61174360e31b81526001600160a01b038316600482015260240161040b565b6001600160a01b03838116600081815260056020908152604080832094871680845294825291829020805460ff191686151590811790915591519182527f17307eab39ab6107e8899845ad3d59bd9653f200f220920489ca2b5937696c31910160405180910390a3505050565b6001600160a01b0383163b1561046f57604051630a85bd0160e11b81526001600160a01b0384169063150b7a0290610b8990339088908790879060040161150c565b6020604051808303816000875af1925050508015610bc4575060408051601f3d908101601f19168201909252610bc191810190611549565b60015b610c2d573d808015610bf2576040519150601f19603f3d011682016040523d82523d6000602084013e610bf7565b606091505b508051600003610c2557604051633250574960e11b81526001600160a01b038516600482015260240161040b565b805181602001fd5b6001600160e01b03198116630a85bd0160e11b14610c6957604051633250574960e11b81526001600160a01b038516600482015260240161040b565b5050505050565b6060610c7b826108ea565b506000610c9360408051602081019091526000815290565b90506000815111610cb35760405180602001604052806000815250610cde565b80610cbd84610f04565b604051602001610cce92919061149f565b6040516020818303038152906040525b9392505050565b6001600160a01b038216610d0f57604051633250574960e11b81526000600482015260240161040b565b6000610d1d83836000610930565b90506001600160a01b03811615610490576040516339e3563760e11b81526000600482015260240161040b565b6000828152600660205260409020610d6282826115b6565b506040518281527ff8e1a15aba9398e019f0b49df1a4fde98ee17ae345cb5f6b5e2c27f5033e8ce79060200160405180910390a15050565b8080610dae57506001600160a01b03821615155b15610e70576000610dbe846108ea565b90506001600160a01b03831615801590610dea5750826001600160a01b0316816001600160a01b031614155b8015610dfd5750610dfb8184610713565b155b15610e265760405163a9fbf51f60e01b81526001600160a01b038416600482015260240161040b565b8115610e6e5783856001600160a01b0316826001600160a01b03167f8c5be1e5ebec7d5bd14f71427d1e84f3dd0314c0f7b2291e5b200ac8c7c3b92560405160405180910390a45b505b5050600090815260046020526040902080546001600160a01b0319166001600160a01b0392909216919091179055565b610eab838383610f97565b610490576001600160a01b038316610ed957604051637e27328960e01b81526004810182905260240161040b565b60405163177e802f60e01b81526001600160a01b03831660048201526024810182905260440161040b565b60606000610f1183610ffa565b600101905060008167ffffffffffffffff811115610f3157610f3161125a565b6040519080825280601f01601f191660200182016040528015610f5b576020820181803683370190505b5090508181016020015b600019016f181899199a1a9b1b9c1cb0b131b232b360811b600a86061a8153600a8504945084610f6557509392505050565b60006001600160a01b038316158015906106b95750826001600160a01b0316846001600160a01b03161480610fd15750610fd18484610713565b806106b95750506000908152600460205260409020546001600160a01b03908116911614919050565b60008072184f03e93ff9f4daa797ed6e38ed64bf6a1f0160401b83106110395772184f03e93ff9f4daa797ed6e38ed64bf6a1f0160401b830492506040015b6d04ee2d6d415b85acef81000000008310611065576d04ee2d6d415b85acef8100000000830492506020015b662386f26fc10000831061108357662386f26fc10000830492506010015b6305f5e100831061109b576305f5e100830492506008015b61271083106110af57612710830492506004015b606483106110c1576064830492506002015b600a83106103155760010192915050565b6001600160e01b03198116811461077c57600080fd5b6000602082840312156110fa57600080fd5b8135610cde816110d2565b60005b83811015611120578181015183820152602001611108565b50506000910152565b60008151808452611141816020860160208601611105565b601f01601f19169290920160200192915050565b602081526000610cde6020830184611129565b60006020828403121561117a57600080fd5b5035919050565b80356001600160a01b038116811461119857600080fd5b919050565b600080604083850312156111b057600080fd5b6111b983611181565b946020939093013593505050565b6000806000606084860312156111dc57600080fd5b6111e584611181565b92506111f360208501611181565b9150604084013590509250925092565b60006020828403121561121557600080fd5b610cde82611181565b6000806040838503121561123157600080fd5b61123a83611181565b91506020830135801515811461124f57600080fd5b809150509250929050565b634e487b7160e01b600052604160045260246000fd5b600067ffffffffffffffff8084111561128b5761128b61125a565b604051601f8501601f19908116603f011681019082821181831017156112b3576112b361125a565b816040528093508581528686860111156112cc57600080fd5b858560208301376000602087830101525050509392505050565b600080600080608085870312156112fc57600080fd5b61130585611181565b935061131360208601611181565b925060408501359150606085013567ffffffffffffffff81111561133657600080fd5b8501601f8101871361134757600080fd5b61135687823560208401611270565b91505092959194509250565b6000806000806060858703121561137857600080fd5b61138185611181565b935060208501359250604085013567ffffffffffffffff808211156113a557600080fd5b818701915087601f8301126113b957600080fd5b8135818111156113c857600080fd5b8860208285010111156113da57600080fd5b95989497505060200194505050565b600080604083850312156113fc57600080fd5b61140583611181565b915061141360208401611181565b90509250929050565b60006020828403121561142e57600080fd5b813567ffffffffffffffff81111561144557600080fd5b8201601f8101841361145657600080fd5b6106b984823560208401611270565b600181811c9082168061147957607f821691505b60208210810361149957634e487b7160e01b600052602260045260246000fd5b50919050565b600083516114b1818460208801611105565b8351908301906114c5818360208801611105565b01949350505050565b600082516114e0818460208701611105565b9190910192915050565b60008261150757634e487b7160e01b600052601260045260246000fd5b500690565b6001600160a01b038581168252841660208201526040810183905260806060820181905260009061153f90830184611129565b9695505050505050565b60006020828403121561155b57600080fd5b8151610cde816110d2565b601f821115610490576000816000526020600020601f850160051c8101602086101561158f5750805b601f850160051c820191505b818110156115ae5782815560010161159b565b505050505050565b815167ffffffffffffffff8111156115d0576115d061125a565b6115e4816115de8454611465565b84611566565b602080601f83116001811461161957600084156116015750858301515b600019600386901b1c1916600185901b1785556115ae565b600085815260208120601f198616915b8281101561164857888601518255948401946001909101908401611629565b50858210156116665787850151600019600388901b60f8161c191681555b5050505050600190811b0190555056fe4e657720676f6f646965732061726520617661696c61626c6520657370656369616c6c7920666f7220796f752c206c6f6720696e20746f206f7572207765627369746520746f2066696e64206d6f726541206578636c75736976652070617274792077696c6c2074616b6520706c616365207468652032337264206f66204d6172636820627574206b656570206974207365637265742e2057652077696c6c206b65657020796f7520696e20746f7563682e2e2ea2646970667358221220907020eb5332cbf1beb9eb663de27162c86914bbdc60f9164298d51a18c9f43e64736f6c63430008180033","linkReferences":{}},"methodIdentifiers":{"MINTER_ROLE()":"d5391393","approve(address,uint256)":"095ea7b3","balanceOf(address)":"70a08231","getApproved(uint256)":"081812fc","isApprovedForAll(address,address)":"e985e9c5","mint(address,uint256,string)":"d3fc9864","name()":"06fdde03","obtainGoodies()":"98497315","obtainOffer()":"bc72dda1","owner()":"8da5cb5b","ownerOf(uint256)":"6352211e","renounceOwnership()":"715018a6","requestReward(string)":"ffc78413","safeTransferFrom(address,address,uint256)":"42842e0e","safeTransferFrom(address,address,uint256,bytes)":"b88d4fde","setApprovalForAll(address,bool)":"a22cb465","supportsInterface(bytes4)":"01ffc9a7","symbol()":"95d89b41","tokenURI(uint256)":"c87b56dd","transferFrom(address,address,uint256)":"23b872dd","transferOwnership(address)":"f2fde38b"},"id":16}