{"abi":[{"type":"constructor","inputs":[],"stateMutability":"nonpayable"},{"type":"function","name":"MINTER_ROLE","inputs":[],"outputs":[{"name":"","type":"bytes32","internalType":"bytes32"}],"stateMutability":"view"},{"type":"function","name":"approve","inputs":[{"name":"to","type":"address","internalType":"address"},{"name":"tokenId","type":"uint256","internalType":"uint256"}],"outputs":[],"stateMutability":"nonpayable"},{"type":"function","name":"balanceOf","inputs":[{"name":"owner","type":"address","internalType":"address"}],"outputs":[{"name":"","type":"uint256","internalType":"uint256"}],"stateMutability":"view"},{"type":"function","name":"getApproved","inputs":[{"name":"tokenId","type":"uint256","internalType":"uint256"}],"outputs":[{"name":"","type":"address","internalType":"address"}],"stateMutability":"view"},{"type":"function","name":"isApprovedForAll","inputs":[{"name":"owner","type":"address","internalType":"address"},{"name":"operator","type":"address","internalType":"address"}],"outputs":[{"name":"","type":"bool","internalType":"bool"}],"stateMutability":"view"},{"type":"function","name":"mint","inputs":[{"name":"_to","type":"address","internalType":"address"},{"name":"_tokenId","type":"uint256","internalType":"uint256"},{"name":"_uri","type":"string","internalType":"string"}],"outputs":[],"stateMutability":"nonpayable"},{"type":"function","name":"name","inputs":[],"outputs":[{"name":"","type":"string","internalType":"string"}],"stateMutability":"view"},{"type":"function","name":"obtainGoodies","inputs":[{"name":"_to","type":"address","internalType":"address"}],"outputs":[{"name":"","type":"string","internalType":"string"}],"stateMutability":"view"},{"type":"function","name":"obtainPartyAcces","inputs":[{"name":"_to","type":"address","internalType":"address"}],"outputs":[{"name":"","type":"string","internalType":"string"}],"stateMutability":"nonpayable"},{"type":"function","name":"owner","inputs":[],"outputs":[{"name":"","type":"address","internalType":"address"}],"stateMutability":"view"},{"type":"function","name":"ownerOf","inputs":[{"name":"tokenId","type":"uint256","internalType":"uint256"}],"outputs":[{"name":"","type":"address","internalType":"address"}],"stateMutability":"view"},{"type":"function","name":"renounceOwnership","inputs":[],"outputs":[],"stateMutability":"nonpayable"},{"type":"function","name":"requestReward","inputs":[{"name":"_to","type":"address","internalType":"address"},{"name":"rewardType","type":"string","internalType":"string"}],"outputs":[],"stateMutability":"nonpayable"},{"type":"function","name":"safeTransferFrom","inputs":[{"name":"from","type":"address","internalType":"address"},{"name":"to","type":"address","internalType":"address"},{"name":"tokenId","type":"uint256","internalType":"uint256"}],"outputs":[],"stateMutability":"nonpayable"},{"type":"function","name":"safeTransferFrom","inputs":[{"name":"from","type":"address","internalType":"address"},{"name":"to","type":"address","internalType":"address"},{"name":"tokenId","type":"uint256","internalType":"uint256"},{"name":"data","type":"bytes","internalType":"bytes"}],"outputs":[],"stateMutability":"nonpayable"},{"type":"function","name":"setApprovalForAll","inputs":[{"name":"operator","type":"address","internalType":"address"},{"name":"approved","type":"bool","internalType":"bool"}],"outputs":[],"stateMutability":"nonpayable"},{"type":"function","name":"supportsInterface","inputs":[{"name":"interfaceId","type":"bytes4","internalType":"bytes4"}],"outputs":[{"name":"","type":"bool","internalType":"bool"}],"stateMutability":"view"},{"type":"function","name":"symbol","inputs":[],"outputs":[{"name":"","type":"string","internalType":"string"}],"stateMutability":"view"},{"type":"function","name":"tokenURI","inputs":[{"name":"tokenId","type":"uint256","internalType":"uint256"}],"outputs":[{"name":"","type":"string","internalType":"string"}],"stateMutability":"view"},{"type":"function","name":"transferFrom","inputs":[{"name":"from","type":"address","internalType":"address"},{"name":"to","type":"address","internalType":"address"},{"name":"tokenId","type":"uint256","internalType":"uint256"}],"outputs":[],"stateMutability":"nonpayable"},{"type":"function","name":"transferOwnership","inputs":[{"name":"newOwner","type":"address","internalType":"address"}],"outputs":[],"stateMutability":"nonpayable"},{"type":"event","name":"Approval","inputs":[{"name":"owner","type":"address","indexed":true,"internalType":"address"},{"name":"approved","type":"address","indexed":true,"internalType":"address"},{"name":"tokenId","type":"uint256","indexed":true,"internalType":"uint256"}],"anonymous":false},{"type":"event","name":"ApprovalForAll","inputs":[{"name":"owner","type":"address","indexed":true,"internalType":"address"},{"name":"operator","type":"address","indexed":true,"internalType":"address"},{"name":"approved","type":"bool","indexed":false,"internalType":"bool"}],"anonymous":false},{"type":"event","name":"BatchMetadataUpdate","inputs":[{"name":"_fromTokenId","type":"uint256","indexed":false,"internalType":"uint256"},{"name":"_toTokenId","type":"uint256","indexed":false,"internalType":"uint256"}],"anonymous":false},{"type":"event","name":"MetadataUpdate","inputs":[{"name":"_tokenId","type":"uint256","indexed":false,"internalType":"uint256"}],"anonymous":false},{"type":"event","name":"OwnershipTransferred","inputs":[{"name":"previousOwner","type":"address","indexed":true,"internalType":"address"},{"name":"newOwner","type":"address","indexed":true,"internalType":"address"}],"anonymous":false},{"type":"event","name":"Transfer","inputs":[{"name":"from","type":"address","indexed":true,"internalType":"address"},{"name":"to","type":"address","indexed":true,"internalType":"address"},{"name":"tokenId","type":"uint256","indexed":true,"internalType":"uint256"}],"anonymous":false},{"type":"error","name":"ERC721IncorrectOwner","inputs":[{"name":"sender","type":"address","internalType":"address"},{"name":"tokenId","type":"uint256","internalType":"uint256"},{"name":"owner","type":"address","internalType":"address"}]},{"type":"error","name":"ERC721InsufficientApproval","inputs":[{"name":"operator","type":"address","internalType":"address"},{"name":"tokenId","type":"uint256","internalType":"uint256"}]},{"type":"error","name":"ERC721InvalidApprover","inputs":[{"name":"approver","type":"address","internalType":"address"}]},{"type":"error","name":"ERC721InvalidOperator","inputs":[{"name":"operator","type":"address","internalType":"address"}]},{"type":"error","name":"ERC721InvalidOwner","inputs":[{"name":"owner","type":"address","internalType":"address"}]},{"type":"error","name":"ERC721InvalidReceiver","inputs":[{"name":"receiver","type":"address","internalType":"address"}]},{"type":"error","name":"ERC721InvalidSender","inputs":[{"name":"sender","type":"address","internalType":"address"}]},{"type":"error","name":"ERC721NonexistentToken","inputs":[{"name":"tokenId","type":"uint256","internalType":"uint256"}]},{"type":"error","name":"OwnableInvalidOwner","inputs":[{"name":"owner","type":"address","internalType":"address"}]},{"type":"error","name":"OwnableUnauthorizedAccount","inputs":[{"name":"account","type":"address","internalType":"address"}]}],"bytecode":{"object":"0x60806040523480156200001157600080fd5b5033604051806040016040528060118152602001704e46542052657761726420426f6f6e747960781b8152506040518060400160405280600381526020016227292160e91b81525081600090816200006a9190620001b6565b506001620000798282620001b6565b5050506001600160a01b038116620000ab57604051631e4fbdf760e01b81526000600482015260240160405180910390fd5b620000b681620000bd565b5062000282565b600780546001600160a01b038381166001600160a01b0319831681179093556040519116919082907f8be0079c531659141344cd1fd0a4f28419497f9722a3daafe3b4186f6b6457e090600090a35050565b634e487b7160e01b600052604160045260246000fd5b600181811c908216806200013a57607f821691505b6020821081036200015b57634e487b7160e01b600052602260045260246000fd5b50919050565b601f821115620001b1576000816000526020600020601f850160051c810160208610156200018c5750805b601f850160051c820191505b81811015620001ad5782815560010162000198565b5050505b505050565b81516001600160401b03811115620001d257620001d26200010f565b620001ea81620001e3845462000125565b8462000161565b602080601f831160018114620002225760008415620002095750858301515b600019600386901b1c1916600185901b178555620001ad565b600085815260208120601f198616915b82811015620002535788860151825594840194600190910190840162000232565b5085821015620002725787850151600019600388901b60f8161c191681555b5050505050600190811b01905550565b61186b80620002926000396000f3fe608060405234801561001057600080fd5b50600436106101375760003560e01c80637cabd336116100b8578063b88d4fde1161007c578063b88d4fde14610280578063c87b56dd14610293578063d3fc9864146102a6578063d5391393146102b9578063e985e9c5146102e0578063f2fde38b146102f357600080fd5b80637cabd3361461022e57806387e86f82146102415780638da5cb5b1461025457806395d89b4114610265578063a22cb4651461026d57600080fd5b806342842e0e116100ff57806342842e0e146101cc578063515a5924146101df5780636352211e146101f257806370a0823114610205578063715018a61461022657600080fd5b806301ffc9a71461013c57806306fdde0314610164578063081812fc14610179578063095ea7b3146101a457806323b872dd146101b9575b600080fd5b61014f61014a366004611196565b610306565b60405190151581526020015b60405180910390f35b61016c610331565b60405161015b9190611203565b61018c610187366004611216565b6103c3565b6040516001600160a01b03909116815260200161015b565b6101b76101b2366004611246565b6103ec565b005b6101b76101c7366004611270565b6103fb565b6101b76101da366004611270565b61048b565b61016c6101ed3660046112ac565b6104ab565b61018c610200366004611216565b610512565b6102186102133660046112ac565b61051d565b60405190815260200161015b565b6101b7610565565b6101b761023c366004611353565b610579565b61016c61024f3660046112ac565b6106c4565b6007546001600160a01b031661018c565b61016c610748565b6101b761027b3660046113b5565b610757565b6101b761028e3660046113f1565b610762565b61016c6102a1366004611216565b610779565b6101b76102b436600461146d565b61088a565b6102187f9f2df0fed2c77648de5860a4cc508cd0818c85b8b8a1ab4ceeef8d981c8956a681565b61014f6102ee3660046114f4565b6108dc565b6101b76103013660046112ac565b61090a565b60006001600160e01b03198216632483248360e11b148061032b575061032b82610948565b92915050565b60606000805461034090611527565b80601f016020809104026020016040519081016040528092919081815260200182805461036c90611527565b80156103b95780601f1061038e576101008083540402835291602001916103b9565b820191906000526020600020905b81548152906001019060200180831161039c57829003601f168201915b5050505050905090565b60006103ce82610998565b506000828152600460205260409020546001600160a01b031661032b565b6103f78282336109d1565b5050565b6001600160a01b03821661042a57604051633250574960e11b8152600060048201526024015b60405180910390fd5b60006104378383336109de565b9050836001600160a01b0316816001600160a01b031614610485576040516364283d7b60e01b81526001600160a01b0380861660048301526024820184905282166044820152606401610421565b50505050565b6104a683838360405180602001604052806000815250610762565b505050565b6001600160a01b038116600090815260096020526040902054606090600510156104ee5760405180608001604052806050815260200161175a6050913992915050565b60405180606001604052806028815260200161180e6028913992915050565b919050565b600061032b82610998565b60006001600160a01b038216610549576040516322718ad960e21b815260006004820152602401610421565b506001600160a01b031660009081526003602052604090205490565b61056d610ad7565b6105776000610b04565b565b6001600160a01b03821660009081526009602052604081208054600192906105a2908490611561565b90915550506040516213919560ea1b602082015260230160405160208183030381529060405280519060200120816040516020016105e09190611582565b604051602081830303815290604052805190602001200361065c576040516bffffffffffffffffffffffff193360601b166020820152426034820152600060548201819052906103e8906074016040516020818303038152906040528051906020012060001c610650919061159e565b90506104a63382610b56565b60405164506172747960d81b602082015260250160405160208183030381529060405280519060200120816040516020016106979190611582565b60405160208183030381529060405280519060200120036106bb576104a6826106c4565b6104a6826104ab565b6001600160a01b038116600090815260096020526040902054606090600a10156104ee57600880546001810182556000919091527ff3f7a9fe364faab93b216da50a3214154f22a0a2b415b23a84c8169e8b636ee30180546001600160a01b031916331790556040805160a0810190915260648082526117aa602083013992915050565b60606001805461034090611527565b6103f7338383610bbb565b61076d8484846103fb565b61048584848484610c5a565b606061078482610998565b506000828152600660205260408120805461079e90611527565b80601f01602080910402602001604051908101604052809291908181526020018280546107ca90611527565b80156108175780601f106107ec57610100808354040283529160200191610817565b820191906000526020600020905b8154815290600101906020018083116107fa57829003601f168201915b50505050509050600061083560408051602081019091526000815290565b90508051600003610847575092915050565b8151156108795780826040516020016108619291906115c0565b60405160208183030381529060405292505050919050565b61088284610d83565b949350505050565b610892610ad7565b61089c8484610b56565b6104858383838080601f016020809104026020016040519081016040528093929190818152602001838380828437600092019190915250610df892505050565b6001600160a01b03918216600090815260056020908152604080832093909416825291909152205460ff1690565b610912610ad7565b6001600160a01b03811661093c57604051631e4fbdf760e01b815260006004820152602401610421565b61094581610b04565b50565b60006001600160e01b031982166380ac58cd60e01b148061097957506001600160e01b03198216635b5e139f60e01b145b8061032b57506301ffc9a760e01b6001600160e01b031983161461032b565b6000818152600260205260408120546001600160a01b03168061032b57604051637e27328960e01b815260048101849052602401610421565b6104a68383836001610e48565b6000828152600260205260408120546001600160a01b0390811690831615610a0b57610a0b818486610f4e565b6001600160a01b03811615610a4957610a28600085600080610e48565b6001600160a01b038116600090815260036020526040902080546000190190555b6001600160a01b03851615610a78576001600160a01b0385166000908152600360205260409020805460010190555b60008481526002602052604080822080546001600160a01b0319166001600160a01b0389811691821790925591518793918516917fddf252ad1be2c89b69c2b068fc378daa952ba7f163c4a11628f55a4df523b3ef91a4949350505050565b6007546001600160a01b031633146105775760405163118cdaa760e01b8152336004820152602401610421565b600780546001600160a01b038381166001600160a01b0319831681179093556040519116919082907f8be0079c531659141344cd1fd0a4f28419497f9722a3daafe3b4186f6b6457e090600090a35050565b6001600160a01b038216610b8057604051633250574960e11b815260006004820152602401610421565b6000610b8e838360006109de565b90506001600160a01b038116156104a6576040516339e3563760e11b815260006004820152602401610421565b6001600160a01b038216610bed57604051630b61174360e31b81526001600160a01b0383166004820152602401610421565b6001600160a01b03838116600081815260056020908152604080832094871680845294825291829020805460ff191686151590811790915591519182527f17307eab39ab6107e8899845ad3d59bd9653f200f220920489ca2b5937696c31910160405180910390a3505050565b6001600160a01b0383163b1561048557604051630a85bd0160e11b81526001600160a01b0384169063150b7a0290610c9c9033908890879087906004016115ef565b6020604051808303816000875af1925050508015610cd7575060408051601f3d908101601f19168201909252610cd49181019061162c565b60015b610d40573d808015610d05576040519150601f19603f3d011682016040523d82523d6000602084013e610d0a565b606091505b508051600003610d3857604051633250574960e11b81526001600160a01b0385166004820152602401610421565b805181602001fd5b6001600160e01b03198116630a85bd0160e11b14610d7c57604051633250574960e11b81526001600160a01b0385166004820152602401610421565b5050505050565b6060610d8e82610998565b506000610da660408051602081019091526000815290565b90506000815111610dc65760405180602001604052806000815250610df1565b80610dd084610fb2565b604051602001610de19291906115c0565b6040516020818303038152906040525b9392505050565b6000828152600660205260409020610e108282611699565b506040518281527ff8e1a15aba9398e019f0b49df1a4fde98ee17ae345cb5f6b5e2c27f5033e8ce79060200160405180910390a15050565b8080610e5c57506001600160a01b03821615155b15610f1e576000610e6c84610998565b90506001600160a01b03831615801590610e985750826001600160a01b0316816001600160a01b031614155b8015610eab5750610ea981846108dc565b155b15610ed45760405163a9fbf51f60e01b81526001600160a01b0384166004820152602401610421565b8115610f1c5783856001600160a01b0316826001600160a01b03167f8c5be1e5ebec7d5bd14f71427d1e84f3dd0314c0f7b2291e5b200ac8c7c3b92560405160405180910390a45b505b5050600090815260046020526040902080546001600160a01b0319166001600160a01b0392909216919091179055565b610f59838383611045565b6104a6576001600160a01b038316610f8757604051637e27328960e01b815260048101829052602401610421565b60405163177e802f60e01b81526001600160a01b038316600482015260248101829052604401610421565b60606000610fbf836110a8565b600101905060008167ffffffffffffffff811115610fdf57610fdf6112c7565b6040519080825280601f01601f191660200182016040528015611009576020820181803683370190505b5090508181016020015b600019016f181899199a1a9b1b9c1cb0b131b232b360811b600a86061a8153600a850494508461101357509392505050565b60006001600160a01b038316158015906108825750826001600160a01b0316846001600160a01b0316148061107f575061107f84846108dc565b806108825750506000908152600460205260409020546001600160a01b03908116911614919050565b60008072184f03e93ff9f4daa797ed6e38ed64bf6a1f0160401b83106110e75772184f03e93ff9f4daa797ed6e38ed64bf6a1f0160401b830492506040015b6d04ee2d6d415b85acef81000000008310611113576d04ee2d6d415b85acef8100000000830492506020015b662386f26fc10000831061113157662386f26fc10000830492506010015b6305f5e1008310611149576305f5e100830492506008015b612710831061115d57612710830492506004015b6064831061116f576064830492506002015b600a831061032b5760010192915050565b6001600160e01b03198116811461094557600080fd5b6000602082840312156111a857600080fd5b8135610df181611180565b60005b838110156111ce5781810151838201526020016111b6565b50506000910152565b600081518084526111ef8160208601602086016111b3565b601f01601f19169290920160200192915050565b602081526000610df160208301846111d7565b60006020828403121561122857600080fd5b5035919050565b80356001600160a01b038116811461050d57600080fd5b6000806040838503121561125957600080fd5b6112628361122f565b946020939093013593505050565b60008060006060848603121561128557600080fd5b61128e8461122f565b925061129c6020850161122f565b9150604084013590509250925092565b6000602082840312156112be57600080fd5b610df18261122f565b634e487b7160e01b600052604160045260246000fd5b600067ffffffffffffffff808411156112f8576112f86112c7565b604051601f8501601f19908116603f01168101908282118183101715611320576113206112c7565b8160405280935085815286868601111561133957600080fd5b858560208301376000602087830101525050509392505050565b6000806040838503121561136657600080fd5b61136f8361122f565b9150602083013567ffffffffffffffff81111561138b57600080fd5b8301601f8101851361139c57600080fd5b6113ab858235602084016112dd565b9150509250929050565b600080604083850312156113c857600080fd5b6113d18361122f565b9150602083013580151581146113e657600080fd5b809150509250929050565b6000806000806080858703121561140757600080fd5b6114108561122f565b935061141e6020860161122f565b925060408501359150606085013567ffffffffffffffff81111561144157600080fd5b8501601f8101871361145257600080fd5b611461878235602084016112dd565b91505092959194509250565b6000806000806060858703121561148357600080fd5b61148c8561122f565b935060208501359250604085013567ffffffffffffffff808211156114b057600080fd5b818701915087601f8301126114c457600080fd5b8135818111156114d357600080fd5b8860208285010111156114e557600080fd5b95989497505060200194505050565b6000806040838503121561150757600080fd5b6115108361122f565b915061151e6020840161122f565b90509250929050565b600181811c9082168061153b57607f821691505b60208210810361155b57634e487b7160e01b600052602260045260246000fd5b50919050565b8082018082111561032b57634e487b7160e01b600052601160045260246000fd5b600082516115948184602087016111b3565b9190910192915050565b6000826115bb57634e487b7160e01b600052601260045260246000fd5b500690565b600083516115d28184602088016111b3565b8351908301906115e68183602088016111b3565b01949350505050565b6001600160a01b0385811682528416602082015260408101839052608060608201819052600090611622908301846111d7565b9695505050505050565b60006020828403121561163e57600080fd5b8151610df181611180565b601f8211156104a6576000816000526020600020601f850160051c810160208610156116725750805b601f850160051c820191505b818110156116915782815560010161167e565b505050505050565b815167ffffffffffffffff8111156116b3576116b36112c7565b6116c7816116c18454611527565b84611649565b602080601f8311600181146116fc57600084156116e45750858301515b600019600386901b1c1916600185901b178555611691565b600085815260208120601f198616915b8281101561172b5788860151825594840194600190910190840161170c565b50858210156117495787850151600019600388901b60f8161c191681555b5050505050600190811b0190555056fe4e657720676f6f646965732061726520617661696c61626c6520657370656369616c6c7920666f7220796f752c206c6f6720696e20746f206f7572207765627369746520746f2066696e64206d6f726541206578636c75736976652070617274792077696c6c2074616b6520706c616365207468652032337264206f66204d6172636820627574206b656570206974207365637265742e2057652077696c6c206b65657020796f7520696e20746f7563682e2e2e596f7520646f6e27742068617665207965742061636365737320746f207468697320726577617264a26469706673582212204df43871e411d7c2392ee54085b025fe59095b24b01b63cb18db0fa6a4b5251e64736f6c63430008180033","linkReferences":{}},"methodIdentifiers":{"MINTER_ROLE()":"d5391393","approve(address,uint256)":"095ea7b3","balanceOf(address)":"70a08231","getApproved(uint256)":"081812fc","isApprovedForAll(address,address)":"e985e9c5","mint(address,uint256,string)":"d3fc9864","name()":"06fdde03","obtainGoodies(address)":"515a5924","obtainPartyAcces(address)":"87e86f82","owner()":"8da5cb5b","ownerOf(uint256)":"6352211e","renounceOwnership()":"715018a6","requestReward(address,string)":"7cabd336","safeTransferFrom(address,address,uint256)":"42842e0e","safeTransferFrom(address,address,uint256,bytes)":"b88d4fde","setApprovalForAll(address,bool)":"a22cb465","supportsInterface(bytes4)":"01ffc9a7","symbol()":"95d89b41","tokenURI(uint256)":"c87b56dd","transferFrom(address,address,uint256)":"23b872dd","transferOwnership(address)":"f2fde38b"},"id":16}