{"abi":[{"type":"constructor","inputs":[],"stateMutability":"nonpayable"},{"type":"function","name":"MINTER_ROLE","inputs":[],"outputs":[{"name":"","type":"bytes32","internalType":"bytes32"}],"stateMutability":"view"},{"type":"function","name":"approve","inputs":[{"name":"to","type":"address","internalType":"address"},{"name":"tokenId","type":"uint256","internalType":"uint256"}],"outputs":[],"stateMutability":"nonpayable"},{"type":"function","name":"balanceOf","inputs":[{"name":"owner","type":"address","internalType":"address"}],"outputs":[{"name":"","type":"uint256","internalType":"uint256"}],"stateMutability":"view"},{"type":"function","name":"getApproved","inputs":[{"name":"tokenId","type":"uint256","internalType":"uint256"}],"outputs":[{"name":"","type":"address","internalType":"address"}],"stateMutability":"view"},{"type":"function","name":"isApprovedForAll","inputs":[{"name":"owner","type":"address","internalType":"address"},{"name":"operator","type":"address","internalType":"address"}],"outputs":[{"name":"","type":"bool","internalType":"bool"}],"stateMutability":"view"},{"type":"function","name":"mint","inputs":[{"name":"_to","type":"address","internalType":"address"},{"name":"_tokenId","type":"uint256","internalType":"uint256"},{"name":"_uri","type":"string","internalType":"string"}],"outputs":[],"stateMutability":"nonpayable"},{"type":"function","name":"name","inputs":[],"outputs":[{"name":"","type":"string","internalType":"string"}],"stateMutability":"view"},{"type":"function","name":"obtainGoodies","inputs":[],"outputs":[{"name":"","type":"string","internalType":"string"}],"stateMutability":"pure"},{"type":"function","name":"obtainOffer","inputs":[],"outputs":[{"name":"","type":"string","internalType":"string"}],"stateMutability":"nonpayable"},{"type":"function","name":"owner","inputs":[],"outputs":[{"name":"","type":"address","internalType":"address"}],"stateMutability":"view"},{"type":"function","name":"ownerOf","inputs":[{"name":"tokenId","type":"uint256","internalType":"uint256"}],"outputs":[{"name":"","type":"address","internalType":"address"}],"stateMutability":"view"},{"type":"function","name":"renounceOwnership","inputs":[],"outputs":[],"stateMutability":"nonpayable"},{"type":"function","name":"requestReward","inputs":[{"name":"rewardType","type":"string","internalType":"string"}],"outputs":[],"stateMutability":"nonpayable"},{"type":"function","name":"safeTransferFrom","inputs":[{"name":"from","type":"address","internalType":"address"},{"name":"to","type":"address","internalType":"address"},{"name":"tokenId","type":"uint256","internalType":"uint256"}],"outputs":[],"stateMutability":"nonpayable"},{"type":"function","name":"safeTransferFrom","inputs":[{"name":"from","type":"address","internalType":"address"},{"name":"to","type":"address","internalType":"address"},{"name":"tokenId","type":"uint256","internalType":"uint256"},{"name":"data","type":"bytes","internalType":"bytes"}],"outputs":[],"stateMutability":"nonpayable"},{"type":"function","name":"setApprovalForAll","inputs":[{"name":"operator","type":"address","internalType":"address"},{"name":"approved","type":"bool","internalType":"bool"}],"outputs":[],"stateMutability":"nonpayable"},{"type":"function","name":"supportsInterface","inputs":[{"name":"interfaceId","type":"bytes4","internalType":"bytes4"}],"outputs":[{"name":"","type":"bool","internalType":"bool"}],"stateMutability":"view"},{"type":"function","name":"symbol","inputs":[],"outputs":[{"name":"","type":"string","internalType":"string"}],"stateMutability":"view"},{"type":"function","name":"tokenURI","inputs":[{"name":"tokenId","type":"uint256","internalType":"uint256"}],"outputs":[{"name":"","type":"string","internalType":"string"}],"stateMutability":"view"},{"type":"function","name":"transferFrom","inputs":[{"name":"from","type":"address","internalType":"address"},{"name":"to","type":"address","internalType":"address"},{"name":"tokenId","type":"uint256","internalType":"uint256"}],"outputs":[],"stateMutability":"nonpayable"},{"type":"function","name":"transferOwnership","inputs":[{"name":"newOwner","type":"address","internalType":"address"}],"outputs":[],"stateMutability":"nonpayable"},{"type":"event","name":"Approval","inputs":[{"name":"owner","type":"address","indexed":true,"internalType":"address"},{"name":"approved","type":"address","indexed":true,"internalType":"address"},{"name":"tokenId","type":"uint256","indexed":true,"internalType":"uint256"}],"anonymous":false},{"type":"event","name":"ApprovalForAll","inputs":[{"name":"owner","type":"address","indexed":true,"internalType":"address"},{"name":"operator","type":"address","indexed":true,"internalType":"address"},{"name":"approved","type":"bool","indexed":false,"internalType":"bool"}],"anonymous":false},{"type":"event","name":"BatchMetadataUpdate","inputs":[{"name":"_fromTokenId","type":"uint256","indexed":false,"internalType":"uint256"},{"name":"_toTokenId","type":"uint256","indexed":false,"internalType":"uint256"}],"anonymous":false},{"type":"event","name":"MetadataUpdate","inputs":[{"name":"_tokenId","type":"uint256","indexed":false,"internalType":"uint256"}],"anonymous":false},{"type":"event","name":"OwnershipTransferred","inputs":[{"name":"previousOwner","type":"address","indexed":true,"internalType":"address"},{"name":"newOwner","type":"address","indexed":true,"internalType":"address"}],"anonymous":false},{"type":"event","name":"Transfer","inputs":[{"name":"from","type":"address","indexed":true,"internalType":"address"},{"name":"to","type":"address","indexed":true,"internalType":"address"},{"name":"tokenId","type":"uint256","indexed":true,"internalType":"uint256"}],"anonymous":false},{"type":"error","name":"ERC721IncorrectOwner","inputs":[{"name":"sender","type":"address","internalType":"address"},{"name":"tokenId","type":"uint256","internalType":"uint256"},{"name":"owner","type":"address","internalType":"address"}]},{"type":"error","name":"ERC721InsufficientApproval","inputs":[{"name":"operator","type":"address","internalType":"address"},{"name":"tokenId","type":"uint256","internalType":"uint256"}]},{"type":"error","name":"ERC721InvalidApprover","inputs":[{"name":"approver","type":"address","internalType":"address"}]},{"type":"error","name":"ERC721InvalidOperator","inputs":[{"name":"operator","type":"address","internalType":"address"}]},{"type":"error","name":"ERC721InvalidOwner","inputs":[{"name":"owner","type":"address","internalType":"address"}]},{"type":"error","name":"ERC721InvalidReceiver","inputs":[{"name":"receiver","type":"address","internalType":"address"}]},{"type":"error","name":"ERC721InvalidSender","inputs":[{"name":"sender","type":"address","internalType":"address"}]},{"type":"error","name":"ERC721NonexistentToken","inputs":[{"name":"tokenId","type":"uint256","internalType":"uint256"}]},{"type":"error","name":"OwnableInvalidOwner","inputs":[{"name":"owner","type":"address","internalType":"address"}]},{"type":"error","name":"OwnableUnauthorizedAccount","inputs":[{"name":"account","type":"address","internalType":"address"}]}],"bytecode":{"object":"0x60806040523480156200001157600080fd5b5033604051806040016040528060118152602001704e46542052657761726420426f6f6e747960781b8152506040518060400160405280600381526020016227292160e91b81525081600090816200006a9190620001b6565b506001620000798282620001b6565b5050506001600160a01b038116620000ab57604051631e4fbdf760e01b81526000600482015260240160405180910390fd5b620000b681620000bd565b5062000282565b600780546001600160a01b038381166001600160a01b0319831681179093556040519116919082907f8be0079c531659141344cd1fd0a4f28419497f9722a3daafe3b4186f6b6457e090600090a35050565b634e487b7160e01b600052604160045260246000fd5b600181811c908216806200013a57607f821691505b6020821081036200015b57634e487b7160e01b600052602260045260246000fd5b50919050565b601f821115620001b1576000816000526020600020601f850160051c810160208610156200018c5750805b601f850160051c820191505b81811015620001ad5782815560010162000198565b5050505b505050565b81516001600160401b03811115620001d257620001d26200010f565b620001ea81620001e3845462000125565b8462000161565b602080601f831160018114620002225760008415620002095750858301515b600019600386901b1c1916600185901b178555620001ad565b600085815260208120601f198616915b82811015620002535788860151825594840194600190910190840162000232565b5085821015620002725787850151600019600388901b60f8161c191681555b5050505050600190811b01905550565b6117bf80620002926000396000f3fe608060405234801561001057600080fd5b50600436106101375760003560e01c806395d89b41116100b8578063c87b56dd1161007c578063c87b56dd1461026a578063d3fc98641461027d578063d539139314610290578063e985e9c5146102b7578063f2fde38b146102ca578063ffc78413146102dd57600080fd5b806395d89b411461022c5780639849731514610234578063a22cb4651461023c578063b88d4fde1461024f578063bc72dda11461026257600080fd5b806342842e0e116100ff57806342842e0e146101cc5780636352211e146101df57806370a08231146101f2578063715018a6146102135780638da5cb5b1461021b57600080fd5b806301ffc9a71461013c57806306fdde0314610164578063081812fc14610179578063095ea7b3146101a457806323b872dd146101b9575b600080fd5b61014f61014a366004611120565b6102f0565b60405190151581526020015b60405180910390f35b61016c61031b565b60405161015b919061118d565b61018c6101873660046111a0565b6103ad565b6040516001600160a01b03909116815260200161015b565b6101b76101b23660046111d5565b6103d6565b005b6101b76101c73660046111ff565b6103e5565b6101b76101da3660046111ff565b610475565b61018c6101ed3660046111a0565b610495565b61020561020036600461123b565b6104a0565b60405190815260200161015b565b6101b76104e8565b6007546001600160a01b031661018c565b61016c6104fc565b61016c61050b565b6101b761024a366004611256565b61052b565b6101b761025d36600461131e565b610536565b61016c61054d565b61016c6102783660046111a0565b6105b0565b6101b761028b36600461139a565b6106c1565b6102057f9f2df0fed2c77648de5860a4cc508cd0818c85b8b8a1ab4ceeef8d981c8956a681565b61014f6102c5366004611421565b610713565b6101b76102d836600461123b565b610741565b6101b76102eb366004611454565b61077f565b60006001600160e01b03198216632483248360e11b14806103155750610315826108d2565b92915050565b60606000805461032a9061149d565b80601f01602080910402602001604051908101604052809291908181526020018280546103569061149d565b80156103a35780601f10610378576101008083540402835291602001916103a3565b820191906000526020600020905b81548152906001019060200180831161038657829003601f168201915b5050505050905090565b60006103b882610922565b506000828152600460205260409020546001600160a01b0316610315565b6103e182823361095b565b5050565b6001600160a01b03821661041457604051633250574960e11b8152600060048201526024015b60405180910390fd5b6000610421838333610968565b9050836001600160a01b0316816001600160a01b03161461046f576040516364283d7b60e01b81526001600160a01b038086166004830152602482018490528216604482015260640161040b565b50505050565b61049083838360405180602001604052806000815250610536565b505050565b600061031582610922565b60006001600160a01b0382166104cc576040516322718ad960e21b81526000600482015260240161040b565b506001600160a01b031660009081526003602052604090205490565b6104f0610a61565b6104fa6000610a8e565b565b60606001805461032a9061149d565b60606040518060800160405280605081526020016116d660509139905090565b6103e1338383610ae0565b6105418484846103e5565b61046f84848484610b7f565b600880546001810182556000919091527ff3f7a9fe364faab93b216da50a3214154f22a0a2b415b23a84c8169e8b636ee30180546001600160a01b031916331790556040805160a081019091526064808252606091906117266020830139905090565b60606105bb82610922565b50600082815260066020526040812080546105d59061149d565b80601f01602080910402602001604051908101604052809291908181526020018280546106019061149d565b801561064e5780601f106106235761010080835404028352916020019161064e565b820191906000526020600020905b81548152906001019060200180831161063157829003601f168201915b50505050509050600061066c60408051602081019091526000815290565b9050805160000361067e575092915050565b8151156106b05780826040516020016106989291906114d7565b60405160208183030381529060405292505050919050565b6106b984610ca8565b949350505050565b6106c9610a61565b6106d38484610d1d565b61046f8383838080601f016020809104026020016040519081016040528093929190818152602001838380828437600092019190915250610d8292505050565b6001600160a01b03918216600090815260056020908152604080832093909416825291909152205460ff1690565b610749610a61565b6001600160a01b03811661077357604051631e4fbdf760e01b81526000600482015260240161040b565b61077c81610a8e565b50565b600980546001919060009061079890849060ff16611506565b92506101000a81548160ff021916908360ff1602179055506040516020016107c9906213919560ea1b815260030190565b60405160208183030381529060405280519060200120816040516020016107f0919061152d565b604051602081830303815290604052805190602001200361086c576040516bffffffffffffffffffffffff193360601b166020820152426034820152600060548201819052906103e8906074016040516020818303038152906040528051906020012060001c6108609190611549565b90506103e13382610d1d565b6040516427b33332b960d91b602082015260250160405160208183030381529060405280519060200120816040516020016108a7919061152d565b60405160208183030381529060405280519060200120036108ca576103e161054d565b6103e161050b565b60006001600160e01b031982166380ac58cd60e01b148061090357506001600160e01b03198216635b5e139f60e01b145b8061031557506301ffc9a760e01b6001600160e01b0319831614610315565b6000818152600260205260408120546001600160a01b03168061031557604051637e27328960e01b81526004810184905260240161040b565b6104908383836001610dd2565b6000828152600260205260408120546001600160a01b039081169083161561099557610995818486610ed8565b6001600160a01b038116156109d3576109b2600085600080610dd2565b6001600160a01b038116600090815260036020526040902080546000190190555b6001600160a01b03851615610a02576001600160a01b0385166000908152600360205260409020805460010190555b60008481526002602052604080822080546001600160a01b0319166001600160a01b0389811691821790925591518793918516917fddf252ad1be2c89b69c2b068fc378daa952ba7f163c4a11628f55a4df523b3ef91a4949350505050565b6007546001600160a01b031633146104fa5760405163118cdaa760e01b815233600482015260240161040b565b600780546001600160a01b038381166001600160a01b0319831681179093556040519116919082907f8be0079c531659141344cd1fd0a4f28419497f9722a3daafe3b4186f6b6457e090600090a35050565b6001600160a01b038216610b1257604051630b61174360e31b81526001600160a01b038316600482015260240161040b565b6001600160a01b03838116600081815260056020908152604080832094871680845294825291829020805460ff191686151590811790915591519182527f17307eab39ab6107e8899845ad3d59bd9653f200f220920489ca2b5937696c31910160405180910390a3505050565b6001600160a01b0383163b1561046f57604051630a85bd0160e11b81526001600160a01b0384169063150b7a0290610bc190339088908790879060040161156b565b6020604051808303816000875af1925050508015610bfc575060408051601f3d908101601f19168201909252610bf9918101906115a8565b60015b610c65573d808015610c2a576040519150601f19603f3d011682016040523d82523d6000602084013e610c2f565b606091505b508051600003610c5d57604051633250574960e11b81526001600160a01b038516600482015260240161040b565b805181602001fd5b6001600160e01b03198116630a85bd0160e11b14610ca157604051633250574960e11b81526001600160a01b038516600482015260240161040b565b5050505050565b6060610cb382610922565b506000610ccb60408051602081019091526000815290565b90506000815111610ceb5760405180602001604052806000815250610d16565b80610cf584610f3c565b604051602001610d069291906114d7565b6040516020818303038152906040525b9392505050565b6001600160a01b038216610d4757604051633250574960e11b81526000600482015260240161040b565b6000610d5583836000610968565b90506001600160a01b03811615610490576040516339e3563760e11b81526000600482015260240161040b565b6000828152600660205260409020610d9a8282611615565b506040518281527ff8e1a15aba9398e019f0b49df1a4fde98ee17ae345cb5f6b5e2c27f5033e8ce79060200160405180910390a15050565b8080610de657506001600160a01b03821615155b15610ea8576000610df684610922565b90506001600160a01b03831615801590610e225750826001600160a01b0316816001600160a01b031614155b8015610e355750610e338184610713565b155b15610e5e5760405163a9fbf51f60e01b81526001600160a01b038416600482015260240161040b565b8115610ea65783856001600160a01b0316826001600160a01b03167f8c5be1e5ebec7d5bd14f71427d1e84f3dd0314c0f7b2291e5b200ac8c7c3b92560405160405180910390a45b505b5050600090815260046020526040902080546001600160a01b0319166001600160a01b0392909216919091179055565b610ee3838383610fcf565b610490576001600160a01b038316610f1157604051637e27328960e01b81526004810182905260240161040b565b60405163177e802f60e01b81526001600160a01b03831660048201526024810182905260440161040b565b60606000610f4983611032565b600101905060008167ffffffffffffffff811115610f6957610f69611292565b6040519080825280601f01601f191660200182016040528015610f93576020820181803683370190505b5090508181016020015b600019016f181899199a1a9b1b9c1cb0b131b232b360811b600a86061a8153600a8504945084610f9d57509392505050565b60006001600160a01b038316158015906106b95750826001600160a01b0316846001600160a01b0316148061100957506110098484610713565b806106b95750506000908152600460205260409020546001600160a01b03908116911614919050565b60008072184f03e93ff9f4daa797ed6e38ed64bf6a1f0160401b83106110715772184f03e93ff9f4daa797ed6e38ed64bf6a1f0160401b830492506040015b6d04ee2d6d415b85acef8100000000831061109d576d04ee2d6d415b85acef8100000000830492506020015b662386f26fc1000083106110bb57662386f26fc10000830492506010015b6305f5e10083106110d3576305f5e100830492506008015b61271083106110e757612710830492506004015b606483106110f9576064830492506002015b600a83106103155760010192915050565b6001600160e01b03198116811461077c57600080fd5b60006020828403121561113257600080fd5b8135610d168161110a565b60005b83811015611158578181015183820152602001611140565b50506000910152565b6000815180845261117981602086016020860161113d565b601f01601f19169290920160200192915050565b602081526000610d166020830184611161565b6000602082840312156111b257600080fd5b5035919050565b80356001600160a01b03811681146111d057600080fd5b919050565b600080604083850312156111e857600080fd5b6111f1836111b9565b946020939093013593505050565b60008060006060848603121561121457600080fd5b61121d846111b9565b925061122b602085016111b9565b9150604084013590509250925092565b60006020828403121561124d57600080fd5b610d16826111b9565b6000806040838503121561126957600080fd5b611272836111b9565b91506020830135801515811461128757600080fd5b809150509250929050565b634e487b7160e01b600052604160045260246000fd5b600067ffffffffffffffff808411156112c3576112c3611292565b604051601f8501601f19908116603f011681019082821181831017156112eb576112eb611292565b8160405280935085815286868601111561130457600080fd5b858560208301376000602087830101525050509392505050565b6000806000806080858703121561133457600080fd5b61133d856111b9565b935061134b602086016111b9565b925060408501359150606085013567ffffffffffffffff81111561136e57600080fd5b8501601f8101871361137f57600080fd5b61138e878235602084016112a8565b91505092959194509250565b600080600080606085870312156113b057600080fd5b6113b9856111b9565b935060208501359250604085013567ffffffffffffffff808211156113dd57600080fd5b818701915087601f8301126113f157600080fd5b81358181111561140057600080fd5b88602082850101111561141257600080fd5b95989497505060200194505050565b6000806040838503121561143457600080fd5b61143d836111b9565b915061144b602084016111b9565b90509250929050565b60006020828403121561146657600080fd5b813567ffffffffffffffff81111561147d57600080fd5b8201601f8101841361148e57600080fd5b6106b9848235602084016112a8565b600181811c908216806114b157607f821691505b6020821081036114d157634e487b7160e01b600052602260045260246000fd5b50919050565b600083516114e981846020880161113d565b8351908301906114fd81836020880161113d565b01949350505050565b60ff818116838216019081111561031557634e487b7160e01b600052601160045260246000fd5b6000825161153f81846020870161113d565b9190910192915050565b60008261156657634e487b7160e01b600052601260045260246000fd5b500690565b6001600160a01b038581168252841660208201526040810183905260806060820181905260009061159e90830184611161565b9695505050505050565b6000602082840312156115ba57600080fd5b8151610d168161110a565b601f821115610490576000816000526020600020601f850160051c810160208610156115ee5750805b601f850160051c820191505b8181101561160d578281556001016115fa565b505050505050565b815167ffffffffffffffff81111561162f5761162f611292565b6116438161163d845461149d565b846115c5565b602080601f83116001811461167857600084156116605750858301515b600019600386901b1c1916600185901b17855561160d565b600085815260208120601f198616915b828110156116a757888601518255948401946001909101908401611688565b50858210156116c55787850151600019600388901b60f8161c191681555b5050505050600190811b0190555056fe4e657720676f6f646965732061726520617661696c61626c6520657370656369616c6c7920666f7220796f752c206c6f6720696e20746f206f7572207765627369746520746f2066696e64206d6f726541206578636c75736976652070617274792077696c6c2074616b6520706c616365207468652032337264206f66204d6172636820627574206b656570206974207365637265742e2057652077696c6c206b65657020796f7520696e20746f7563682e2e2ea2646970667358221220c71746f1e6cd953604fc3be96661470bb167e47f149444223be6e8021c96a6c864736f6c63430008180033","linkReferences":{}},"methodIdentifiers":{"MINTER_ROLE()":"d5391393","approve(address,uint256)":"095ea7b3","balanceOf(address)":"70a08231","getApproved(uint256)":"081812fc","isApprovedForAll(address,address)":"e985e9c5","mint(address,uint256,string)":"d3fc9864","name()":"06fdde03","obtainGoodies()":"98497315","obtainOffer()":"bc72dda1","owner()":"8da5cb5b","ownerOf(uint256)":"6352211e","renounceOwnership()":"715018a6","requestReward(string)":"ffc78413","safeTransferFrom(address,address,uint256)":"42842e0e","safeTransferFrom(address,address,uint256,bytes)":"b88d4fde","setApprovalForAll(address,bool)":"a22cb465","supportsInterface(bytes4)":"01ffc9a7","symbol()":"95d89b41","tokenURI(uint256)":"c87b56dd","transferFrom(address,address,uint256)":"23b872dd","transferOwnership(address)":"f2fde38b"},"id":16}